{
  "contractName": "AdkSplitterForTwo",
  "abi": [
    {
      "payable": true,
      "stateMutability": "payable",
      "type": "fallback"
    },
    {
      "anonymous": false,
      "inputs": [],
      "name": "LogBeginSplit",
      "type": "event"
    },
    {
      "anonymous": false,
      "inputs": [],
      "name": "LogEndSplit",
      "type": "event"
    },
    {
      "anonymous": false,
      "inputs": [],
      "name": "LogSamePersonRevert",
      "type": "event"
    },
    {
      "anonymous": false,
      "inputs": [],
      "name": "LogTransferToFirstReceiverBegin",
      "type": "event"
    },
    {
      "anonymous": false,
      "inputs": [],
      "name": "LogTransferToFirstReceiverEnd",
      "type": "event"
    },
    {
      "anonymous": false,
      "inputs": [],
      "name": "LogTransferToSecondReceiverBegin",
      "type": "event"
    },
    {
      "anonymous": false,
      "inputs": [],
      "name": "LogTransferToSecondReceiverEnd",
      "type": "event"
    },
    {
      "anonymous": false,
      "inputs": [],
      "name": "LogTransferChangeToSenderBegin",
      "type": "event"
    },
    {
      "anonymous": false,
      "inputs": [],
      "name": "LogTransferChangeToSenderEnd",
      "type": "event"
    },
    {
      "constant": true,
      "inputs": [],
      "name": "GetContractAddress",
      "outputs": [
        {
          "name": "result",
          "type": "address"
        }
      ],
      "payable": false,
      "stateMutability": "view",
      "type": "function"
    },
    {
      "constant": false,
      "inputs": [
        {
          "name": "firstReceiver",
          "type": "address"
        },
        {
          "name": "secondReceiver",
          "type": "address"
        }
      ],
      "name": "Split",
      "outputs": [],
      "payable": true,
      "stateMutability": "payable",
      "type": "function"
    }
  ],
  "bytecode": "0x608060405234801561001057600080fd5b506105e7806100206000396000f30060806040526004361061004c576000357c0100000000000000000000000000000000000000000000000000000000900463ffffffff1680632dc7738f146100e0578063697b7e9a14610137575b6040517f08c379a000000000000000000000000000000000000000000000000000000000815260040180806020018281038252602a8152602001807f74686520636f6e7472616374206973206e6f7420737570706f73656420746f2081526020017f686f6c642065746865720000000000000000000000000000000000000000000081525060400191505060405180910390fd5b3480156100ec57600080fd5b506100f561018d565b604051808273ffffffffffffffffffffffffffffffffffffffff1673ffffffffffffffffffffffffffffffffffffffff16815260200191505060405180910390f35b61018b600480360381019080803573ffffffffffffffffffffffffffffffffffffffff169060200190929190803573ffffffffffffffffffffffffffffffffffffffff169060200190929190505050610195565b005b600030905090565b6000806000807fd48e522453db8387cf92f466f40dee303c87a125452706116487128c8cab6b8060405160405180910390a160023410151515610240576040517f08c379a000000000000000000000000000000000000000000000000000000000815260040180806020018281038252601c8152602001807f4e6f7420656e6f7567682077656920666f722073706c697474696e670000000081525060200191505060405180910390fd5b8573ffffffffffffffffffffffffffffffffffffffff163373ffffffffffffffffffffffffffffffffffffffff161480156102a657508473ffffffffffffffffffffffffffffffffffffffff163373ffffffffffffffffffffffffffffffffffffffff16145b93508315610379578473ffffffffffffffffffffffffffffffffffffffff168673ffffffffffffffffffffffffffffffffffffffff161415156102e557fe5b6040517f08c379a00000000000000000000000000000000000000000000000000000000081526004018080602001828103825260408152602001807f53656e64657220616e6420626f7468207265636569766572732061726520736181526020017f6d652e204e6f7468696e6720746f20646f2e203d3d3e20726576657274696e6781525060400191505060405180910390fd5b34925060028381151561038857fe5b049150816002028303905060008211151561039f57fe5b7f5d2b0ae389a01cdb5c18b3d75a87b91511371595a0f7df773fc9e2d30ec32af060405160405180910390a18573ffffffffffffffffffffffffffffffffffffffff166108fc839081150290604051600060405180830381858888f19350505050158015610411573d6000803e3d6000fd5b507fb7879c72fb667acda829264ae6ae177ca9d3efbe736e8c8e7474dca5981fc31060405160405180910390a17f3bdecb146cf9cfc47afc136c40650036d545305927ee97338ee01983f4d704bf60405160405180910390a18473ffffffffffffffffffffffffffffffffffffffff166108fc839081150290604051600060405180830381858888f193505050501580156104b0573d6000803e3d6000fd5b507f308bd0056394e79cc8fa82f9da48be3eb189bcc4519b0faf43f3096afb26ebd160405160405180910390a1806000141515610587577f2b1717314b8fbe4d628baede0326821d46a9090a90402f3a06c36c7dde73b63660405160405180910390a13373ffffffffffffffffffffffffffffffffffffffff166108fc829081150290604051600060405180830381858888f19350505050158015610559573d6000803e3d6000fd5b507f4f425a89cc6ac4d86a717bd8185ea577694e31182c4a41cbc6a492f864d86b4a60405160405180910390a15b7ffeb182fe03db37ed742a1bac92512760ae2a15ba99515bfb8f6f7917e7dc3dc860405160405180910390a15050505050505600a165627a7a72305820f985a53b4fd1a7cb3e05d42d31f5f6a3bc7fe6950b986e1fc900903ee51ef0360029",
  "source": "pragma solidity ^0.4.23;\n\n\ncontract AdkSplitterForTwo \n{\n    event LogBeginSplit();\n    event LogEndSplit();\n    event LogSamePersonRevert();\n    \n    event LogTransferToFirstReceiverBegin();\n    event LogTransferToFirstReceiverEnd();\n    \n    event LogTransferToSecondReceiverBegin();\n    event LogTransferToSecondReceiverEnd();\n    \n    event LogTransferChangeToSenderBegin();\n    event LogTransferChangeToSenderEnd();\n    \n    function () payable public\n    {\n        revert(\"the contract is not supposed to hold ether\");\n    }\n    \n    function GetContractAddress() \n        public\n        constant\n        returns (address result)\n    {\n        result = this;\n    }\n    \n    function Split(\n        address firstReceiver ,\n        address secondReceiver) \n    public \n    payable\n    {\n        emit LogBeginSplit();\n        \n        // https://medium.com/blockchannel/the-use-of-revert-assert-and-require-in-solidity-and-the-new-revert-opcode-in-the-evm-1a3a7990e06e\n        require(msg.value >= 2, \"Not enough wei for splitting\");\n        \n        // ???\n        // require(msg.sender.balance >= msg.value, \"Sender has insufficient wei\");\n        \n        bool isAllActorsSamePerson = \n               (msg.sender == firstReceiver ) \n            && (msg.sender == secondReceiver);\n        \n        if (isAllActorsSamePerson)\n        {\n            assert(firstReceiver == secondReceiver);\n            \n            // seems like no work needs to be done\n            // refund the gas to the sender\n            \n            revert(\"Sender and both receivers are same. Nothing to do. ==> reverting\");\n            emit LogSamePersonRevert();\n            \n            return;\n        }\n            \n        uint fundsToSplit = msg.value;\n        uint shareOfReceivers = fundsToSplit / 2;\n        uint change = fundsToSplit - 2 * shareOfReceivers;\n        assert(shareOfReceivers > 0);\n\n        \n        // if (msg.sender != firstReceiver)\n        // {\n\n            // still need to transfer back to the sender\n            // because the sent ether now belongs to the contract\n\n            emit LogTransferToFirstReceiverBegin();\n            firstReceiver.transfer(shareOfReceivers);\n            emit LogTransferToFirstReceiverEnd();\n        // }\n        \n        // if (msg.sender != secondReceiver)\n        // {\n\n            // still need to transfer back to the sender\n            // because the sent ether now belongs to the contract\n\n            emit LogTransferToSecondReceiverBegin();\n            secondReceiver.transfer(shareOfReceivers);\n            emit LogTransferToSecondReceiverEnd();\n        // }\n        \n        \n        if (0 != change)\n        {\n            emit LogTransferChangeToSenderBegin();\n            msg.sender.transfer(change);\n            emit LogTransferChangeToSenderEnd();\n        }\n        \n        \n        emit LogEndSplit();\n        \n    } // function Split() \n    \n} // contract AdkSplitterForTwo\n\n",
  "sourcePath": "/home/adk/projects/ethereum_learn/my_small_projects/splitter-react/contracts/AdkSplitterForTwo.sol",
  "compiler": {
    "name": "solc",
    "version": "0.4.24+commit.e67f0147.Emscripten.clang"
  },
  "schemaVersion": "2.0.1",
  "updatedAt": "2018-10-01T15:12:14.757Z"
}